{
    "contractName": "Main",
    "abi": [
        {
            "inputs": [
                {
                    "internalType": "uint256",
                    "name": "",
                    "type": "uint256"
                }
            ],
            "name": "allDataLords",
            "outputs": [
                {
                    "internalType": "address",
                    "name": "",
                    "type": "address"
                }
            ],
            "stateMutability": "view",
            "type": "function"
        },
        {
            "inputs": [
                {
                    "internalType": "address",
                    "name": "_target",
                    "type": "address"
                },
                {
                    "internalType": "uint256",
                    "name": "_fee",
                    "type": "uint256"
                },
                {
                    "internalType": "string",
                    "name": "nick",
                    "type": "string"
                },
                {
                    "internalType": "bytes32",
                    "name": "hash",
                    "type": "bytes32"
                }
            ],
            "name": "becomeADataLord",
            "outputs": [
                {
                    "internalType": "uint256",
                    "name": "",
                    "type": "uint256"
                },
                {
                    "internalType": "string",
                    "name": "",
                    "type": "string"
                }
            ],
            "stateMutability": "nonpayable",
            "type": "function"
        },
        {
            "inputs": [
                {
                    "internalType": "address",
                    "name": "_target",
                    "type": "address"
                }
            ],
            "name": "buyAccess",
            "outputs": [
                {
                    "internalType": "bool",
                    "name": "",
                    "type": "bool"
                }
            ],
            "stateMutability": "payable",
            "type": "function"
        },
        {
            "inputs": [
                {
                    "internalType": "address",
                    "name": "_Target",
                    "type": "address"
                }
            ],
            "name": "checkFee",
            "outputs": [
                {
                    "internalType": "uint256",
                    "name": "",
                    "type": "uint256"
                }
            ],
            "stateMutability": "view",
            "type": "function"
        },
        {
            "inputs": [
                {
                    "internalType": "address",
                    "name": "",
                    "type": "address"
                }
            ],
            "name": "dataLordAddress",
            "outputs": [
                {
                    "internalType": "bool",
                    "name": "",
                    "type": "bool"
                }
            ],
            "stateMutability": "view",
            "type": "function"
        },
        {
            "inputs": [],
            "name": "getNoOfDatalords",
            "outputs": [
                {
                    "internalType": "uint256",
                    "name": "",
                    "type": "uint256"
                }
            ],
            "stateMutability": "view",
            "type": "function"
        },
        {
            "inputs": [
                {
                    "internalType": "uint256",
                    "name": "_fee",
                    "type": "uint256"
                },
                {
                    "internalType": "address",
                    "name": "_toSet",
                    "type": "address"
                }
            ],
            "name": "setFee",
            "outputs": [
                {
                    "internalType": "uint256",
                    "name": "",
                    "type": "uint256"
                }
            ],
            "stateMutability": "nonpayable",
            "type": "function"
        },
        {
            "inputs": [
                {
                    "internalType": "address",
                    "name": "_target",
                    "type": "address"
                },
                {
                    "internalType": "bytes32",
                    "name": "newhash",
                    "type": "bytes32"
                }
            ],
            "name": "updateHash",
            "outputs": [],
            "stateMutability": "nonpayable",
            "type": "function"
        },
        {
            "inputs": [
                {
                    "internalType": "address",
                    "name": "_target",
                    "type": "address"
                }
            ],
            "name": "viewData",
            "outputs": [
                {
                    "internalType": "bytes32",
                    "name": "",
                    "type": "bytes32"
                }
            ],
            "stateMutability": "view",
            "type": "function"
        }
    ],
    "bytecode": "6080604052670de0b6b3a764000060005534801561001c57600080fd5b50610dd78061002c6000396000f3fe6080604052600436106100855760003560e01c806381e2a6c51161005957806381e2a6c514610122578063b4f2e8b814610150578063bac61db71461017d578063cf910b8f1461019d578063f9110174146101bd57610085565b8062adbe1d1461008a5780630b97df9a146100c05780634c89f405146100e257806358ecfb1d1461010f575b600080fd5b34801561009657600080fd5b506100aa6100a53660046109fd565b6101d2565b6040516100b79190610b5d565b60405180910390f35b3480156100cc57600080fd5b506100e06100db366004610a1f565b6101e7565b005b3480156100ee57600080fd5b506101026100fd366004610b05565b610276565b6040516100b79190610b49565b6100aa61011d3660046109fd565b61029d565b34801561012e57600080fd5b5061014261013d366004610a49565b6104e7565b6040516100b7929190610d46565b34801561015c57600080fd5b5061017061016b366004610b1d565b61063a565b6040516100b79190610b68565b34801561018957600080fd5b506101706101983660046109fd565b61076d565b3480156101a957600080fd5b506101706101b83660046109fd565b610821565b3480156101c957600080fd5b5061017061090d565b60046020526000908152604090205460ff1681565b816001600160a01b03811633146102195760405162461bcd60e51b815260040161021090610d00565b60405180910390fd5b6001600160a01b03831660009081526004602052604090205460ff1615156001146102565760405162461bcd60e51b815260040161021090610c7f565b506001600160a01b03909116600090815260016020526040902060020155565b6005818154811061028357fe5b6000918252602090912001546001600160a01b0316905081565b3360009081526003602090815260408083206001600160a01b03851684529091528120548290819060ff16156102e55760405162461bcd60e51b815260040161021090610cc9565b6102ed610914565b6001600160a01b03851660009081526001602081815260409283902083516080810185528154815281840180548651600296821615610100026000190190911695909504601f810185900485028601850190965285855290949193858401939092908301828280156103a05780601f10610375576101008083540402835291602001916103a0565b820191906000526020600020905b81548152906001019060200180831161038357829003601f168201915b5050509183525050600282015460208201526003909101546001600160a01b03166040909101528051909150348111156103ec5760405162461bcd60e51b815260040161021090610c3a565b60608201513482101561046f57604051348381039190829003906001600160a01b0384169082156108fc029083906000818181858888f19350505050158015610439573d6000803e3d6000fd5b50604051339083156108fc029084906000818181858888f19350505050158015610467573d6000803e3d6000fd5b5050506104a6565b6040516001600160a01b038216903480156108fc02916000818181858888f193505050501580156104a4573d6000803e3d6000fd5b505b50503360009081526003602090815260408083206001600160a01b0398909816835296905294909420805460ff19166001179081905560ff16949350505050565b6001600160a01b0384166000908152600460205260408120546060908690819060ff16156105275760405162461bcd60e51b815260040161021090610b71565b876001600160a01b03811633146105505760405162461bcd60e51b815260040161021090610d00565b6001600160a01b0389166000908152600160208181526040909220895161057f939190920191908a0190610948565b50600080546001600160a01b038b16808352600160208181526040808620948e028555600285018c9055600394850180546001600160a01b03199081163390811790925560048452828820805460ff199081168717909155600580548088019091557f036b6384b5eca791c62761152d0c79bb0604c104a5fb6f4eb0703f3154bb3db0018054909216871790915590875294825280862093865292905292208054909116909117905587945086935050505094509492505050565b6000816001600160a01b03811633146106655760405162461bcd60e51b815260040161021090610d00565b61066d610914565b6001600160a01b03841660009081526001602081815260409283902083516080810185528154815281840180548651600296821615610100026000190190911695909504601f810185900485028601850190965285855290949193858401939092908301828280156107205780601f106106f557610100808354040283529160200191610720565b820191906000526020600020905b81548152906001019060200180831161070357829003601f168201915b505050918352505060028201546020808301919091526003909201546001600160a01b03908116604092830152600080549189168152600190935291209087029055519250505092915050565b6001600160a01b0381166000908152600460205260408120548290819060ff1615156001146107ae5760405162461bcd60e51b815260040161021090610ba8565b3360009081526003602090815260408083206001600160a01b03881684529091529020548490819060ff1615156001146107fa5760405162461bcd60e51b815260040161021090610bf2565b6001600160a01b038616600090815260016020526040902060020154945050505050919050565b600061082b610914565b6001600160a01b03831660009081526001602081815260409283902083516080810185528154815281840180548651600296821615610100026000190190911695909504601f810185900485028601850190965285855290949193858401939092908301828280156108de5780601f106108b3576101008083540402835291602001916108de565b820191906000526020600020905b8154815290600101906020018083116108c157829003601f168201915b5050509183525050600282015460208201526003909101546001600160a01b0316604090910152519392505050565b6005545b90565b604051806080016040528060008152602001606081526020016000801916815260200160006001600160a01b031681525090565b828054600181600116156101000203166002900490600052602060002090601f016020900481019282601f1061098957805160ff19168380011785556109b6565b828001600101855582156109b6579182015b828111156109b657825182559160200191906001019061099b565b506109c29291506109c6565b5090565b61091191905b808211156109c257600081556001016109cc565b80356001600160a01b03811681146109f757600080fd5b92915050565b600060208284031215610a0e578081fd5b610a1883836109e0565b9392505050565b60008060408385031215610a31578081fd5b610a3b84846109e0565b946020939093013593505050565b60008060008060808587031215610a5e578182fd5b610a6886866109e0565b93506020808601359350604086013567ffffffffffffffff80821115610a8c578485fd5b81880189601f820112610a9d578586fd5b8035925081831115610aad578586fd5b604051601f8401601f1916810185018381118282101715610acc578788fd5b60405283815281840185018b1015610ae2578687fd5b838583018683013792830190930194909452949793965093946060013593505050565b600060208284031215610b16578081fd5b5035919050565b60008060408385031215610b2f578182fd5b82359150610b4084602085016109e0565b90509250929050565b6001600160a01b0391909116815260200190565b901515815260200190565b90815260200190565b6020808252601b908201527f596f752061726520616c726561647920612064617461204c6f72640000000000604082015260600190565b6020808252602a908201527f7468697320706572736f6e20646f65736e27742068617665206461746120666f6040820152691c881cd85b19481e595d60b21b606082015260800190565b60208082526028908201527f796f7520646f206e6f742068617665206163636573732c2062757920416363656040820152671cdcc8199a5c9cdd60c21b606082015260800190565b60208082526025908201527f5468652064617461206f776e65722063686172676564206d6f7265207468616e604082015264081d1a185d60da1b606082015260800190565b6020808252602a908201527f796f7520617265206e6f7420612064617461204c6f7264207965742c726567696040820152691cdd195c88199a5c9cdd60b21b606082015260800190565b60208082526018908201527f596f7520616c7265616479206861766520616363657373210000000000000000604082015260600190565b60208082526026908201527f796f7520646f206e6f74206f776e20746869732061646472657373277320646160408201526574616261736560d01b606082015260800190565b600083825260206040818401528351806040850152825b81811015610d7957858101830151858201606001528201610d5d565b81811115610d8a5783606083870101525b50601f01601f19169290920160600194935050505056fea2646970667358221220d026fe981db49efe319a788b413646b871db4b5a5a99fd9141570cda71e03b3f64736f6c63430006020033",
    "sourcePath": "/home/null/Documents/toyanos-master/contract/Main.sol",
    "compiler": {
        "name": "solc",
        "version": "0.6.2+commit.bacdbe57"
    },
    "functionHashes": {
        "allDataLords(uint256)": "4c89f405",
        "becomeADataLord(address,uint256,string,bytes32)": "81e2a6c5",
        "buyAccess(address)": "58ecfb1d",
        "checkFee(address)": "cf910b8f",
        "dataLordAddress(address)": "00adbe1d",
        "getNoOfDatalords()": "f9110174",
        "setFee(uint256,address)": "b4f2e8b8",
        "updateHash(address,bytes32)": "0b97df9a",
        "viewData(address)": "bac61db7"
    },
    "gasEstimates": {
        "creation": {
            "codeDepositCost": "708600",
            "executionCost": "20747",
            "totalCost": "729347"
        },
        "external": {
            "allDataLords(uint256)": "2083",
            "becomeADataLord(address,uint256,string,bytes32)": "infinite",
            "buyAccess(address)": "infinite",
            "checkFee(address)": "infinite",
            "dataLordAddress(address)": "1270",
            "getNoOfDatalords()": "1117",
            "setFee(uint256,address)": "infinite",
            "updateHash(address,bytes32)": "21417",
            "viewData(address)": "3285"
        }
    }
}